:10400000E85E0020154100000D4200000D42000056
:1040100000000000000000000000000000000000A0
:104020000000000000000000000000000D42000041
:1040300000000000000000000D4200000D420000E2
:104040000D4200000D4200000D4200000D42000034
:104050000D4200000D4200000D4200000D42000024
:104060000D420000D9960000E9960000C9960000B4
:10407000B99600000D420000ED7C00000D420000EA
:104080000D4200000D4200007D8000000D42000046
:104090000D4200000D4200000D4200000D420000E4
:1040A0000D4200000D4200000D4200000000000023
:1040B0000000000010B5064C2378002B07D1054BFB
:1040C000002B02D0044800E000BF0123237010BD84
:1040D00034040020000000003CCD0000084B10B567
:1040E000002B03D00749084800E000BF07480368D9
:1040F000002B00D110BD064B002BFBD09847F9E7F1
:1041000000000000380400203CCD00003CCD000041
:104110000000000080B582B000AF2F4B7B602F4BBA
:104120003B607A683B689A420CD007E03B681A1DF6
:104130003A607A68111D796012681A603A68284BF3
:104140009A42F3D3274B3B6004E03B681A1D3A6068
:1041500000221A603A68244B9A42F6D3234B7B60C4
:10416000234B7A68FF218A439A60224A90235B009E
:104170000221D150204AD37803218B43191C0223FA
:104180000B43D3701C4AD3780C218B43191C082392
:104190000B43D370194A937B30218B43191C202386
:1041A0000B439373154A937B0C218B43191C0823F3
:1041B0000B439373114A937B03218B43191C0223F6
:1041C0000B4393730E4A536880210B4353600D4B8E
:1041D00098470D4B9847FEE73CCD000000000020BB
:1041E0003404002034040020E83E00200040000099
:1041F00000ED00E000700041005000410048004127
:104200000040004171C800008D72000080B500AF11
:10421000FEE7C046B0B582B000AF0200FB1D1A70C9
:10422000FB1D1B78012B0CD0022B1FD0002B00D0C4
:1042300074E080235A003B493B4B18003B4B9847A6
:104240006CE080235B00374A19001000384B984718
:10425000031E03D1334B1800364B984780235A0076
:10426000314B30481900344B984757E02E4B4022D1
:1042700000211800314B984731492B4B062218007A
:104280002A4B98472E492F4B06221800274B984758
:104290002D4B402200211800284B98472B492A4BD0
:1042A00005221800214B98472849294B0522180060
:1042B0001E4B984780235A001B4B11001800254BBA
:1042C000984703001900184BFE22FF200840050004
:1042D000985C00242040041C281C20439854090AA0
:1042E00088B29B185A7800210A40111C021C0A430C
:1042F0005A7080235B000B4A190010000C4B984742
:10430000031E03D1074B18000A4B984780235A001D
:10431000054B04481900084B9847C046BD4602B0FB
:10432000B0BDC04600F3030054250020B9C800000A
:10433000456700008B670000D96700003DC9000099
:1043400028CB0000742500209425002030CB0000ED
:10435000B4250020455D000080B582B000AF0200AA
:10436000FB1D1A70FB1D1A781300DB009B185B0005
:1043700068331A00324BD318191DFB1D1B7801330B
:10438000304A5A43304BD3181A0004202F4B984719
:10439000031E01D001234EE0FB1D1A781300DB0041
:1043A0009B185B006C331A00254BD318191DFB1D9D
:1043B0001B780133234A5A43234BD3181A00042095
:1043C000224B9847031E01D0012334E0FB1D1A78CD
:1043D0001300DB009B185B0070331A00184BD318D6
:1043E000191DFB1D1B780133164A5A43164BD3186F
:1043F0001A000420154B9847031E01D001231AE030
:10440000FB1D1A781300DB009B185B0074331A0045
:104410000B4BD318191DFB1D1B780133094A5A4356
:10442000094BD3181A000420084B9847031E01D0EB
:10443000012300E000231800BD4602B080BDC04645
:10444000C43D0020E5050000CC05002083480000A5
:1044500080B5214FBD4400AF8023DA00B0239B021A
:10446000110018001D4B9847031E2FD01A4B8022B5
:1044700052019446BC44634400221A60164B8022C9
:1044800052019446BC44634400225A60124B80227D
:1044900052019446BC44634400229A600E4B802231
:1044A00052019446BC44634404229A810A4B802200
:1044B00052019446BC4463440422DA813900B0239B
:1044C0009B0210221800064B984700E0C046BD46EC
:1044D00080235B019D4480BD00F0FFFF4567000025
:1044E000D967000080B5694FBD4400AFB9607A60FC
:1044F0001900674B674A9446BC446344021C1A7017
:10450000654B644A9446BC4463440A1C1A80802369
:104510005A011023F918B0239B0218005F4B9847EB
:104520005F4BFB1801221A705E4BFB1800221A70B9
:104530005C4BFB181B785C4A56498C46BC44624471
:104540001B01D31808331B685A1C554BFB181B78EA
:10455000554950488446BC4461441B01CB1808337C
:104560001B689A420ED14F4BFB181A784D4BFB1823
:1045700001321A704A4BFB181A78494BFB1801326A
:104580001A70D5E7C046464BFB181A78464B41498E
:104590008C46BC4463441201B968D150404BFB18AF
:1045A0001B78414A3B498C46BC4462441B01D318EA
:1045B00004337A681A603A4BFB181878394BFB18A9
:1045C0001B78394A33498C46BC4462441B01D318DA
:1045D00008331B685A1C344B2E497918C91803013B
:1045E000CB1808331A602E4BFB181B782E4A29492A
:1045F0008C46BC4462441B01D3180C33264A25491F
:104600008C46BC44624412881A80254BFB181B78E8
:10461000254A20498C46BC4462441B01D3180E3302
:1046200004221A801E4BFB181B781B01B022920239
:10463000944663441D4ABA181360194BFB181B7843
:104640000F221340DBB2002B0CD1154BFB181B784B
:104650001B09DBB21B02B02292029446634418008D
:10466000134B9847114BFB1818680D4BFB181B7820
:104670001022BA181B01D318102219000D4B9847AD
:10468000C046BD46034B9D4480BDC046E8EFFFFFDA
:10469000F7EFFFFF18100000F4EFFFFF956900002F
:1046A0001710000016100000F8EFFFFF10100000B8
:1046B0001D6A0000D967000080B582B000AFFB1D05
:1046C00000221A701CE0FB1D1B781B02B022920214
:1046D0009A1880235B00190010000D4B9847031EA9
:1046E00009D1FB1D1B781B02B02292029446634441
:1046F0001800084B9847FB1D1A78FB1D01321A70F1
:10470000FB1D1B780F2BDED9C046BD4602B080BD15
:10471000456700008B67000080B586B000AFF86089
:1047200008007A6019000B23FB18021C1A700A2378
:10473000FB180A1C1A701723FB1800221A700B238F
:10474000FB181B78022B06D00B23FB181B78042BBD
:1047500001D0652342E00A23FB181B78012B06D009
:104760000A23FB181B78002B01D0662336E01723A1
:10477000FB1800221A7028E00A23FB181B78002B74
:104780000FD00B23FB181B785A1E1723FB181B781E
:10479000D31ADB00FA68DA401300DAB27B681A70C9
:1047A00009E01723FB181B78DB00FA68DA401300D6
:1047B000DAB27B681A707B6801337B601723FB18C1
:1047C0001A781723FB1801321A701723FA180B23D3
:1047D000FB1812781B789A42CED300231800BD46EE
:1047E00006B080BD80B584B000AF39601100FB1DFC
:1047F000021C1A70BB1D0A1C1A700023FB600B23DD
:10480000FB1800221A700B23FB1800221A702CE0F0
:10481000BB1D1B78002B11D03B681B781900FB1DBA
:104820001B785A1E0B23FB181B78D31ADB00994008
:104830000B001A00FB689B18FB600CE03B681B78C0
:104840001A000B23FB181B78DB009A4013001A0098
:10485000FB689B18FB603B6801333B600B23FB1834
:104860001A780B23FB1801321A700B23FA18FB1D60
:1048700012781B789A42CBD3FB681800BD4604B06F
:1048800080BD80B586B000AFB9607A600F23FB1899
:10489000021C1A701723FB1800221A701723FB182A
:1048A00000221A7012E0BB685A1CBA601A787B6842
:1048B000591C79601B789A4201D000230FE017231E
:1048C000FB181A781723FB1801321A701723FA18ED
:1048D0000F23FB1812781B789A42E4D301231800A7
:1048E000BD4606B080BD000080B500AF00F005F801
:1048F00000F06CFFC046BD4680BD90B585B000AFEE
:104900000E23FB1800221A80BB1D00221A800C23E4
:10491000FB1800221A800A23FB1800221A803B1D74
:1049200000221A800923FB1800221A70BB1C0022E7
:104930001A800823FB1800221A70984B1B78DBB2F0
:10494000012B07D1964B1B68964A934202D9934B91
:1049500000221A70944B954A9B5C002B01D100F009
:1049600001FF914B914A002199548F4B9B791B0277
:104970001AB28D4BDB791BB213431AB20E23FB180C
:104980001A800E23FB181B88042B01D800F0ECFEC4
:104990000E23FB181A8896235B009A4204D90E2333
:1049A000FB18962252001A800E23FB181A888049A1
:1049B000804B1800804B98470E23FB181A887D4BBC
:1049C000110018007D4B9847031E01D000F0CEFE69
:1049D000784ABB1D12881A800A23FB1802221A800B
:1049E000BB1D1B88002B01D000F0C2FE0A23FB1860
:1049F0001A880A23FB1801321A80714A6A4B19007F
:104A00000420704B9847031E02D1644B00221A7099
:104A1000684B9B78002B0ED0664B9B78202B0AD0DE
:104A2000644B9B78102B06D05C4B1B78DBB2002BC1
:104A300001D100F09FFE5F4B9B78292B01D900F03C
:104A40009BFE9A00604BD3181B689F460E23FB18F1
:104A50001B88092B01D000F091FE5C4B002219004D
:104A600004205B4B984702005A4B1A604C4B0022C3
:104A70001A600A23FB181B884E4A0121D1540A23CD
:104A8000FB181A880A23FB1801321A8000F015FE61
:104A90000E23FB181B88062B01D000F071FE0A23A1
:104AA000FB181B88434AD35C012B3DD10A23FB181A
:104AB0001B88404A0121D1540A23FB180A22BA1844
:104AC000128801321A800A23FB181B88394A802178
:104AD000D1540A23FB180A22BA18128801321A800C
:104AE0000A23FB181A88334BD3183B490D221800B0
:104AF000314B98470A23FB180A22BA1812880D3244
:104B00001A800A23FB181A882A4BD3183349092222
:104B10001800294B98470A23FB180A22BA18128852
:104B200009321A8000F0C9FD0A23FB181B88214AAC
:104B3000D35C022B01D000F08CFD0A23FB181B88EC
:104B40001C4A0221D1540A23FB180A22BA181288DF
:104B500001321A800A23FB181B88164A8021D1547F
:104B60000A23FB180A22BA18128801321A800A2373
:104B7000FB181A880F4BD3181949042218000E4B42
:104B800098470A23FB180A22BA18128804321A809E
:104B90000923FB1800221A70BAE0C0465004002016
:104BA00070040020D0ED2D00CC050020D1050000C0
:104BB000D4050020A0040020B9C80000455D000015
:104BC0009C0400208348000054CB0000A304002074
:104BD000E54700005404002038CB000048CB00001B
:104BE0007C0400200A23FB181A88D24BD018092312
:104BF000FB181B780133D04A5343BA22D2009A18CB
:104C0000CE4BD3180B3304221900CD4B98470A23FF
:104C1000FB180A22BA18128804321A800A23FB18D9
:104C20001A88C44BD0180923FB181B780133C24AD9
:104C30005343BA22D2009A18C04BD3180733042228
:104C40001900BF4B98470A23FB180A22BA1812888A
:104C500004321A800A23FB181A88B64BD01809238D
:104C6000FB181A781300DB009B189B018C22920022
:104C70009A18B44BD318083304221900B04B984744
:104C80000A23FB180A22BA18128804321A800A234F
:104C9000FB181A88A74BD0180923FB181A781300A1
:104CA000DB009B189B018C2292009A18A54BD3180D
:104CB000043304221900A24B98470A23FB180A2246
:104CC000BA18128804321A800A23FB181A88994BE2
:104CD000D0180923FB181A781300DB009B189B01DE
:104CE000862292009A18974BD31802330222190099
:104CF000934B98470A23FB180A22BA1812880232EB
:104D00001A800923FB181A780923FB1801321A703C
:104D10000923FB181B78032B00D863E700F099FCEC
:104D20000E23FB181B88072B01D000F02BFD864BB0
:104D30001B78012B0ED00A23FB181B887D4A00210B
:104D4000D1540A23FB181A880A23FB1801321A804F
:104D500000F0B3FC774BDB781AB2764B1B791B0261
:104D60001BB213431AB2BB1C1A800A23FB180A2277
:104D7000BA18128802321A800C23FB18BA1C128847
:104D8000802149008A1A1A80BB1C1A8880235B0084
:104D90009A4201D900F05FFC0C23FB181A8880238B
:104DA0005B009A4204D90C23FB18802252001A801F
:104DB0000A23FB181B880C22BA181288D1B25D4A4C
:104DC000D1540A23FB180A22BA18128801321A8019
:104DD0000A23FB181B880C22BA181288120A92B2F6
:104DE000D1B2544AD1540A23FB180A22BA181288A5
:104DF00001321A800A23FB181A884E4BD018BB1CAC
:104E00001A88524BD1180C23FB181B881A004C4BE4
:104E100098470A23FB180A22B9180C22BA180988E5
:104E200012888A181A8000F048FC0E23FB181B8891
:104E3000072B01D000F0A8FC434B1B78012B0ED0B0
:104E40000A23FB181B883B4A0021D1540A23FB1874
:104E50001A880A23FB1801321A8000F02EFC354B09
:104E6000DB781AB2334B1B791B021BB213431AB205
:104E7000BB1C1A800A23FB180A22BA1812880232B5
:104E80001A800C23FB18BA1C1288802149008A1A48
:104E90001A80BB1C1A8880235B009A4201D900F05B
:104EA000DCFB0C23FB181A8880235B009A4204D990
:104EB0000C23FB18802252001A800A23FB181B883F
:104EC0000C22BA181288D1B21A4AD1540A23FB18FC
:104ED0000A22BA18128801321A800A23FB181B888A
:104EE0000C22BA181288120A92B2D1B2114AD154C5
:104EF0000A23FB180A22BA18128801321A800A23E0
:104F0000FB181A880B4BD018BB1C1A88104BD118F1
:104F10000C23FB181B881A00094B98470A23FB181F
:104F20000A22B9180C22BA18098812888A181A801D
:104F300000F0C3FBA0040020E5050000CC05002024
:104F4000B9C80000FC31002051040020C43D0020FD
:104F5000C43B00200E23FB181B88052B01D800F052
:104F600015FC0A23FB181A88D54BD2180E23FB1800
:104F70001B88053B9BB219001000D24B98470300D9
:104F800019000A23FB180A22BA1812888A181A80F4
:104F900000F093FB0E23FB181B88062B01D800F0B2
:104FA000F7FBC74BDB781AB2C54B1B791B021BB250
:104FB00013431AB2BB1C1A800A23FB180A22BA1820
:104FC000128802321A80BE4B5B791AB2BC4B9B79B5
:104FD0001B021BB213431AB20C23FB181A800A23BC
:104FE000FB180A22BA18128802321A800C23FB1806
:104FF0001B88002B00D132E3BB1C1B88002B06D181
:1050000080235A00B04B00211800B04B9847BB1CBE
:105010001B88FF2B00D924E30C23FB181A88BB1C28
:105020001B88D3181A0080235B009A4200D943E3FF
:10503000BB1C1A88A44BD0180A23FB181A88A04B53
:10504000D1180C23FB181B881A00A14B98470A2380
:10505000FB181A889A4BD018BB1C1A889A4BD11887
:105060000C23FB181B881A00994B98470A23FB183E
:105070000A22B9180C22BA18098812888A181A80CC
:10508000944B01221A7018E30E23FB181B88062B81
:1050900001D800F07FFB0C23FB1803221A800C239D
:1050A000FB181A88864BD31818008B4B9847092396
:1050B000FB1800221A701BE00923FB181B789A01C9
:1050C000864BD218864B19002020864B9847031E2A
:1050D00007D00823FB180922BA18127801321A7077
:1050E0000BE00923FB181A780923FB1801321A7008
:1050F0000923FB181B78012BDED90823FB181B782A
:10510000002B37D10A23FB181B880A22BA18591C16
:1051100011801A006A4B002199540A23FB181B883E
:105120000A22BA18591C11801A00654B00219954A3
:105130000A23FB181B880A22BA18591C11801A006E
:105140005F4B002199540A23FB181B880A22BA18C6
:10515000591C11801A005A4B002199540A23FB183C
:105160001B880A22BA18591C11801A00544B0021BE
:105170009954A2E20C23FB180C22BA181288203290
:105180001A800C23FB181A884D4BD1180823FB18E2
:105190001B78013B9B0120331A00504BD3181A0097
:1051A0002020504B9847031E37D10A23FB181B8839
:1051B0000A22BA18591C11801A00414B0021995437
:1051C0000A23FB181B880A22BA18591C11801A00DE
:1051D0003B4B002199540A23FB181B880A22BA185A
:1051E000591C11801A00364B002199540A23FB18D0
:1051F0001B880A22BA18591C11801A00304B002152
:1052000099540A23FB181B880A22BA18591C1180CA
:105210001A002B4B002199544FE20823FB181B78EE
:10522000012B1BD1304B1B68002B09D02F4B1B7857
:1052300018002F4B19682C4B1A6801232D4CA047DE
:105240000A23FB181B881E4A0121D1540A23FB188C
:105250001A880A23FB1801321A800CE00A23FB1873
:105260001B88174A0221D1540A23FB181A880A23E3
:10527000FB1801321A801D4B0822BA1812781A70D6
:105280001D4B01221A701D4B00221A601C49184B3D
:10529000042218000E4B98471A4B18680A23FB1873
:1052A0001A88074BD21801230421174CA0470A2360
:1052B000FB180A22BA18128804321A80FDE1C0468F
:1052C000A0040020FD6F0000C43C00203DC9000088
:1052D000B9C8000058040020476000005425002091
:1052E000A30400208348000054040020510400203F
:1052F0009C040020E54400005004002070040020BD
:10530000CC0500204C250020194700000E23FB1877
:105310001B88042B00D83FE2D34B1B78012B0DD008
:105320000A23FB181B88D14A0021D1540A23FB18F9
:105330001A880A23FB1801321A80BEE10C23FB18DD
:1053400003221A8080235A00C949CA4B1800CA4B4D
:1053500098470C23FB181A88C44BD3181800C74B66
:1053600098470C23FB180C22BA18128840321A8076
:105370000C23FB181A88BD4BD3181800BF4B984755
:105380000C23FB180C22BA18128840321A800C2306
:10539000FB181A88B54BD3181800B84B98470C2344
:1053A000FB180C22BA18128840321A800C23FB1802
:1053B0001A88AE4BD3181800B04B98470C23FB1833
:1053C0000C22BA18128840321A800A23FB180A22CB
:1053D000BA1812880132FF321A806EE10E23FB18D0
:1053E0001B88042B00D8D9E19F4B1B78012B0DD0D3
:1053F0000A23FB181B889D4A0021D1540A23FB185D
:105400001A880A23FB1801321A8056E10C23FB1874
:1054100003221A800C23FB181A88944BD318180007
:10542000974B98470C23FB180C22BA18128840326D
:105430001A800C23FB181A888C4BD3181800904B39
:1054400098470C23FB180C22BA18128840321A8095
:105450000C23FB181A88854BD3181800884B9847E3
:105460000C23FB180C22BA18128840321A800C2325
:10547000FB181A887D4BD3181800814B98470C23D2
:10548000FB180C22BA18128840321A8080235A0066
:105490007849774B1800784B98477A4B01221A705D
:1054A0000BE10E23FB181B88042B00D878E16E4B10
:1054B0001B78012B0DD00A23FB181B886B4A002197
:1054C000D1540A23FB181A880A23FB1801321A80C8
:1054D000F3E00C23FB1803221A800A23FB181A8816
:1054E0000A23FB1801321A80604BDB781B02B022C2
:1054F0009202981880235A00634B1900634B984717
:105500000A23FB180A22BA1812880132FF321A80C5
:10551000D3E00E23FB181B88052B00D042E1524B31
:105520001B78012B0DD00A23FB181B884F4A002142
:10553000D1540A23FB181A880A23FB1801321A8057
:10554000BBE0534B1B78002B3AD080235A00514BC1
:1055500011001800504B9847031E0DD00A23FB186A
:105560001B88424A0021D1540A23FB181A880A23B7
:10557000FB1801321A80A0E0484A464B100019007F
:1055800080235B001A003C4B9847454B1B68002B5F
:1055900009D0354B1B781800424B1968404B1A68EC
:1055A0000223414CA047414B984703001AB20A23FB
:1055B000FB1800215B5E13431AB20A23FB181A8002
:1055C000304B1B78002B10D00120394B9847344BBF
:1055D0001B68002B09D0244B1B781800314B19682D
:1055E0002F4B1A680323304CA047324B01221A80FC
:1055F00063E00E23FB181B88052B00D0D4E01A4B68
:105600001B78012B0DD00A23FB181B88174A002199
:10561000D1540A23FB181A880A23FB1801321A8076
:105620004BE0244B01221A800A23FB181A880A2314
:10563000FB1801321A800A23FB181B880B4A012130
:10564000D1540A23FB181A880A23FB1801321A8046
:1056500033E0C04631E0C0462FE0C0462DE0C046F2
:105660002BE0C04629E0C04651040020A0040020E1
:1056700054250020A3040020B9C8000019600000D0
:105680004760000059040020A40400209569000030
:1056900058040020C43C0020455D0000C43D0020AB
:1056A000540400209C040020E54400007DB000006C
:1056B0001542000048250020C0463E4B9B788022C2
:1056C00052421343DAB23B4B9A703C1D0A23FB183B
:1056D0001A88384B11001800374B98470300238075
:1056E0000A23FB181B883A1D1288D1B2314AD154C3
:1056F0000A23FB181A880A23FB1801321A800A238E
:10570000FB181B883A1D1288120A92B2D1B2294A9C
:10571000D1540A23FB181A880A23FB1801321A8075
:105720000A23FB181A88B923DB009A423ED80A23C1
:10573000FB181A881F49214B1800214B98470A2350
:10574000FB181B881B0A9BB2DAB21E4B9A710A2304
:10575000FB181B88DAB21B4BDA711A4B1A4A01216B
:10576000995424E0C04622E0C04620E0C0461EE036
:10577000C0461CE0C0461AE0C04618E0C04616E02D
:10578000C04614E0C04612E0C04610E0C0460EE03D
:10579000C0460CE0C0460AE0C04608E0C04606E04D
:1057A000C04604E0C04602E0C04600E0C046BD4638
:1057B00005B090BDA0040020455D0000D405002088
:1057C000B9C80000CC050020D205000080B500AFAC
:1057D000134B01221A701BE0114B1B785A1E114902
:1057E000342013005B009B189B009B18CB181B18E0
:1057F0001B78002B05D00A4B1B78180000F014F81A
:1058000000E0C046064B1B780133DAB2044B1A7035
:10581000034B1B78042BDFD9C046BD4680BDC04674
:1058200000000020C43D0020B0B584B000AF0200ED
:10583000FB1D1A700E23FB1800221A80FB1D1B781B
:105840005A1EBC48872399001300DB009B189B015C
:10585000C3185B181B78DBB2002B03D0012B00D1DF
:10586000FDE045E2FB1D1B78B34AB449B44843430D
:10587000D3185B181B78002B00D149E2FB1D1B7865
:105880005A1EB0496A201300DB009B185B00CB183E
:105890001B181B78002B08D1FB1D1B78013B18003F
:1058A000A94B9847031E00D134E2FB1D1B785A1EFA
:1058B000FB1D1B78591E9F4C862398000B00DB00B4
:1058C0005B189B01E3181B181B889BB219000B0087
:1058D0009B005B185B001C0096488823990013000E
:1058E000DB009B189B01C3185B181C60FB1D1B7819
:1058F000914A93494B43D31806331B781B021AB2C3
:10590000FB1D1B788C498E484343CB1807331B780B
:105910001BB213431AB20E23FB181A800E23FB1876
:105920001A8880235B009A420AD9FB1D1B78824AA1
:10593000824983484343D3185B1800221A70F0E170
:10594000FB1D1B785A1E7F49362013005B009B18F5
:105950009B009B18CB181B181B78022B50D1FB1DEA
:105960001B78774A534308331A00734BD3189A1D98
:105970000E23FB181B88063B9BB20C217C181900D8
:105980001000724B984703002380FB1D1A780E23EA
:10599000FB181B880C2179180988CCB26649684825
:1059A00042438A18D3180833221C1A70FB1D1A7838
:1059B0000E23FB181B8801330C2179180988090A6A
:1059C00089B2CCB25C495E4842438A18D318083386
:1059D000221C1A70FB1D1B78013BD8B2FB1D1B78E3
:1059E000574A534308331A00534BD318991D0E23BB
:1059F000FB181B88043B9BB21A00554B984712E0DA
:105A0000FB1D1B78013BD8B2FB1D1B784C4A53434E
:105A100008331A00484BD1180E23FB181B881A00B4
:105A20004B4B9847C046FB1D1B785A1E41488723A5
:105A300099001300DB009B189B01C3185B1801221F
:105A40001A70FB1D1B785A1E3A4942481300DB00AE
:105A50009B189B01CB181B1800221A8061E1FB1DCB
:105A60001B78013BD8B2FB1D1B785A1E1300DB00CC
:105A70009B189B010933FF331A002E4BD318591C76
:105A80000E23FC1880235B001A00334B9847030059
:105A900023800E23FB181B88002B00D1F3E0FB1D95
:105AA0001B785A1E2749362013005B009B189B0069
:105AB0009B18CB181B181B78022B51D10E23FB18F7
:105AC0001A8880235B009A4200D925E1FB1D1B78D0
:105AD0001B4A534308331A00174BD318981DFB1D5C
:105AE0001B785A1E1300DB009B189B010933FF3300
:105AF0001A00104BD318591C0E23FB181B881A00D0
:105B0000164B98470E23FB180E22BA18128804323F
:105B10001A80FB1D1B780E22BA181288D2B2063AE0
:105B2000D0B2054A06494B43D3180D33021C1A70F4
:105B30003AE0C046FC310020CC050020D105000031
:105B4000E5050000C43D002059430000055E00004B
:105B5000258F00000E02000039900000B9C8000037
:105B60000E23FB181A8880235B009A4200D9D5E0E7
:105B7000FB1D1B786C4A534308331A006B4BD0183B
:105B8000FB1D1B785A1E1300DB009B189B01093379
:105B9000FF331A00664BD318591C0E23FB181B88C1
:105BA0001A00644B9847C046FB1D1B780E22BA189A
:105BB0001288120A92B2D0B25C4A5B494B43D318A6
:105BC0000633021C1A70FB1D1B780E22BA181288AD
:105BD000D0B2564A54494B43D3180733021C1A70AB
:105BE000FB1D1B78514A54494F484343D3185B1857
:105BF00001221A70FB1D1B785A1EFB1D1B78591EB3
:105C00004B4C862398000B00DB005B189B01E318CC
:105C10001B181B889BB2191C8900CB18DB1898B283
:105C2000FB1D1B78591E424D88239C000B00DB0096
:105C30005B189B01EB181B191B689BB2C31A9CB223
:105C40003B493E481300DB009B189B01CB181B18F7
:105C5000221C1A80FB1D1B785A1E35488723990089
:105C60001300DB009B189B01C3185B1800221A70FD
:105C7000FB1D1B782D4A32492B484343D3185B1830
:105C800000221A704DE0FB1D1B785A1E28488823FD
:105C900099001300DB009B189B01C3185B181B685D
:105CA000002B3DD1FB1D1B785A1E214887239900EC
:105CB0001300DB009B189B01C3185B1800221A70AD
:105CC000FB1D1B785A1E1A491C481300DB009B1849
:105CD0009B01CB181B1800221A80FB1D1B78134A4E
:105CE000174911484343D3185B1800221A7017E074
:105CF000FB1D1B785A1E0E48872399001300DB00FA
:105D00009B189B01C3185B1800221A70C04608E05C
:105D1000C04606E0C04604E0C04602E0C04600E0DF
:105D2000C046BD4604B0B0BDE5050000CC0500206E
:105D3000FC310020B9C80000D20500001A020000A2
:105D4000D105000080B584B000AF78600A00BB1CAC
:105D50001A800E23FB18012252421A8037E07B681A
:105D60005A1C7A601B781B021AB20E23FB18002102
:105D70005B5E53401AB20E23FB181A800D23FB18EA
:105D800000221A701EE00E23FB1800229B5E002BDF
:105D900009DA0E23FB181B885B001BB2184A53401C
:105DA0001BB29BB204E00E23FB181B88DB189BB2CE
:105DB0000E22BA1813800D23FB181A780D23FB1836
:105DC00001321A700D23FB181B78072BDBD9BB1C83
:105DD0001B88BA1C591E1180002BC0D10E23FB1842
:105DE0001B881B0A9BB21AB20E23FB181B881B02CE
:105DF0001BB213431BB29BB21800BD4604B080BD5A
:105E00002110000080B584B000AF78600A00BB1C90
:105E10001A800A23FB18012252421A800E23FB1813
:105E200000221A8042E00E23FB181B887A68D318E0
:105E30001B7899B20A23FB180A22BA1812884A4022
:105E40001A800D23FB1808221A7023E00A23FB187E
:105E50001B88012213400FD00A23FB180A22BA180C
:105E6000128852081A800A23FB180A22BA181288CC
:105E700015494A401A8006E00A23FB180A22BA187C
:105E8000128852081A800D23FB181A780D23FB186C
:105E9000013A1A700D23FB181B78002BD6D10E2364
:105EA000FB181A880E23FB1801321A800E23FA18E9
:105EB000BB1C12881B889A42B5D30A23FB181B8887
:105EC0001800BD4604B080BD01A0FFFF80B54C4F57
:105ED000BD4400AF7860396000238222D200BA1836
:105EE000136043E08223DB00FB181B68454ABA18A5
:105EF00013600023444ABA1813601AE0414BFB18A0
:105F00001B680122134006D03E4BFB181B685B0840
:105F10003E4A534003E03B4BFB181B685B08394A81
:105F2000BA181360384BFB181B680133364ABA188D
:105F30001360354BFB181B68072BDFDD344B8322C6
:105F4000D2009446BC4463448222D200BA1812683C
:105F500092002C4979180968D1508223DB00FB1884
:105F60001B6801338222D200BA1813608223DB003F
:105F7000FB181B68FF2BB5DD01235B42214ABA18D1
:105F800013602DE03B685B045B0C0ED1214B9B79C9
:105F9000DB07DB0FDBB2012B07D11E4A937901210E
:105FA0000B4393711B4BA5221A727B685A1C7A60B3
:105FB0001B781A00134BFB181B685340FF221A4032
:105FC000134B8321C9008C46BC4463449200D258D1
:105FD0000C4BFB181B681B0A53400A4ABA18136083
:105FE0003B685A1E3A60002BCCD1064BFB181B684D
:105FF000DB431800BD468323DB009D4480BDC046C3
:10600000E8FBFFFF140400000C0400002083B8ED3F
:10601000F4FBFFFF0010004080B582B000AF786055
:106020007B680121180000F017F97B680121180036
:1060300000F020F87B680121180000F07EF8C046CF
:10604000BD4602B080BD80B582B000AF78607B688D
:106050000021180000F071F87B680021180000F0A2
:1060600009F87B680021180000F0F6F8C046BD462C
:1060700002B080BD80B584B000AF78600A00FB1C20
:106080001A700F23FB18FF221A700E23FB18002230
:106090001A700D23FB1800221A70FB1C1B78012BB1
:1060A00003D10F23FB1801221A700E23FB180022C4
:1060B0001A7039E00D23FB180E22BA18127801214C
:1060C0000A401A700E23FB181B783F22D31A00D502
:1060D00001335B10DAB20C23FB180F217918097811
:1060E0004A431A700D23FB181B78002B09D07B68DC
:1060F0001A780C23FB181B78D31ADAB27B681A7053
:1061000008E07B681A780C23FB181B78D318DAB2E6
:106110007B681A707B6801337B600E23FB181A784A
:106120000E23FB1801321A700E23FB181B783F2B2D
:10613000C0D9C046BD4604B080BD80B594B000AFA4
:1061400078600A00FB1C1A704F23FB1800221A709B
:106150004E23FB1800221A707B68BB644D23FB188A
:1061600000221A704C23FB1800221A700823FA1818
:106170007B681000190040231A00364B9847FB1C1F
:106180001B78012B03D1FB1C03221A7002E0FB1CBD
:1061900001221A704D23FB1800221A704EE04C2386
:1061A000FB1800221A702AE04E23FB181B783F2BA5
:1061B0000CD94F23FB181A784F23FB1801321A70A1
:1061C0004E23FB184F22BA1812781A704E23FB1870
:1061D0001B780822BA18D25C7B681A707B6801337E
:1061E0007B604E23FB184E22BA18127808321A70C0
:1061F0004C23FB181A784C23FB1801321A704C23DD
:10620000FB181B783E2BCFD94F23FB1800221A70A6
:106210004E23FB1800221A70BB6C7B600823FA180F
:106220007B681000190040231A000A4B98474D2341
:10623000FB181A784D23FB1801321A704D23FA18F7
:10624000FB1C12781B789A42A9D3C046BD4614B0F5
:1062500080BDC046B9C8000080B584B000AF78608A
:106260000A00FB1C1A700F23FB18FF221A700E2362
:10627000FB1800221A70FB1C1B78012B03D10F2383
:10628000FB1801221A700E23FB1800221A7012E06C
:106290007B681A780F23FB181B7844214B43DBB231
:1062A000D318DAB27B681A700E23FB181A780E2303
:1062B000FB1801321A700E23FB181B783E2BE7D90E
:1062C000C046BD4604B080BDB0B582B000AF3D4B06
:1062D00098473D4B26229A5C27215B5C1B021343A7
:1062E0009BB2012219000020384B9847031E04D0AE
:1062F000374B1A7804210A431A70FB1D00221A70CA
:1063000057E0FB1D1A783049342013005B009B18BE
:106310009B009B18CB181B181B78002B43D0FB1D30
:106320001B780133DCB2FB1D1A78274913005B0090
:106330009B189B009B18CB183033DA791B7A1B0211
:1063400013439DB2FB1D1A781F49352013005B00D3
:106350009B189B009B18CB181B181B781A00290050
:1063600020001A4B9847031E1ED0194B1B785B0662
:106370001B0FDBB21900FB1D1B7801229A40130092
:10638000DBB2CB18DBB21A1C0F231340DAB2104B6E
:106390000F210A40D0001A7878218A43111C021C70
:1063A0000A431A7000E0C046FB1D1A78FB1D01323B
:1063B0001A70FB1D1B78032BA3D9C046BD4602B043
:1063C000B0BDC046F9960000C43D00201174000025
:1063D0005025002090B583B000AFBB1D00221A806D
:1063E000404B1B78012B38D0022B59D0002B00D00A
:1063F00069E000F02DF903001A00BB1D1A80BB1DD7
:106400001B886D2B21D0374B02221A70364B03228A
:106410001A70BB1D1B88DAB2334B5A70BB1D1B8828
:10642000002B55D0BB1D1B885A1E30493520130048
:106430005B009B189B009B18CB181B181B78022B2A
:1064400048D1294B05221A7044E0274B180000F070
:1064500051F8244B01221A7041E0234B1A78224B49
:106460005B78BC1D19001000214B98470300238066
:10647000BB1D1B88022B03D11A4B00221A702EE081
:10648000BB1D1B88002B27D0174B5A78BB1D1B88C0
:106490001900100000F06EF8124B00221A701BE079
:1064A000114B1A78104B5B78BC1D19001000104B73
:1064B000984703002380BB1D1B88002B0ED0094B7F
:1064C00000221A700AE0074B00221A70C04606E04C
:1064D000C04604E0C04602E0C04600E0C046BD46FB
:1064E00003B090BD5A040020003B0020C43D0020B2
:1064F0007198000080B582B000AF78601A4B1B78AD
:106500000133DAB2184B1A70174B1B78042B02D9DF
:10651000154B00221A70144B1B78002B06D1134B1D
:1065200000225A70114B02221A701AE00E4B1A7890
:106530000E4B5A700C4B1B785A1E0D493520130018
:106540005B009B189B009B18CB181B181B78022B19
:1065500003D1064B04221A7003E0044B02221A7086
:10656000C046BD4602B080BD01000020003B0020B7
:10657000C43D002090B583B000AF0200FB1D1A702F
:106580003B1D0A1C1A80FB1D1B782E4A2E492F48E2
:106590004343D3185B181B78012B4ED0FB1D197891
:1065A0002848BA23DB00294A4A438218D318DA7AEA
:1065B000187B00020243587B000402439B7B1B06AE
:1065C00013435A1C1F48BA23DB00204C6143411877
:1065D000CB180B33FF2111400C001978002001402B
:1065E000081C211C01431970110AFF2001400C00F6
:1065F000597800200140081C211C01435970110CDE
:10660000FF2001400C00997800200140081C211C4B
:1066100001439970100EDA7800210A40111C021C07
:106620000A43DA70FB1D1B78064A074907484343B3
:10663000D3185B1801221A7000E0C046BD4603B0B3
:1066400090BDC046CC050020D1050000E505000046
:1066500090B583B000AFFB1D00221A70FB1D002215
:106660001A7060E0FB1D1B78334A344934484343B9
:10667000D3185B181B78012B50D1FB1D1B782E4AB9
:106680002E492F484343D3185B1800221A70FB1D74
:1066900019782948BA23DB00294A4A438218D318BB
:1066A000DA79187A00020243587A000402439B7A8E
:1066B0001B0613435A1C2048BA23DB00204C6143BD
:1066C0004118CB180733FF2111400C001978002026
:1066D0000140081C211C01431970110AFF200140D0
:1066E0000C00597800200140081C211C01435970FE
:1066F000110CFF2001400C00997800200140081C7B
:10670000211C01439970100EDA7800210A40111CF7
:10671000021C0A43DA70FB1D1B7809E0FB1D1A7886
:10672000FB1D01321A70FB1D1B78042B9AD96D23B7
:106730001800BD4603B090BDCC050020D205000076
:10674000E505000080B584B000AF78600A00BB1C8E
:106750001A800023FB600FE07B681B68FB60FB680E
:10676000013301D000230CE07B6804337B60BB1C49
:10677000BA1C1288043A1A80BB1C1B88002BEBD170
:1067800001231800BD4604B080BD80B582B000AFC3
:106790007860C0460E4B1B7DDB07DB0FDBB2002BA6
:1067A000F8D00B4B2022FF321A837B680122524221
:1067B0001A60074B074A1A80C046054B1B7DDB0752
:1067C000DB0FDBB2002BF8D0C046BD4602B080BD67
:1067D0000040004102A5FFFF80B588B000AFF8601F
:1067E000B960BB1D1A801E23FB1800221A800023EB
:1067F0007B610023BB612B4A536880218B4353602C
:1068000048E0BB1D1B88102B02D8BB1D1B8800E075
:1068100010237B617B699AB2BB1DB91D09888A1A56
:106820001A80204B204A1A80C0461E4B1B7DDB0776
:10683000DB0FDBB2002BF8D01E23FB1800221A80DE
:1068400013E0FB681E22BA181188BA698A18B96861
:106850008A1812681A601E23FB181E22BA181288A2
:1068600004321A80FB680433FB601E23FB181A886D
:106870007B699A42E5D3BA697B69D318BB61094B3E
:106880000A4A1A80C046074B1B7DDB07DB0FDBB2D1
:10689000002BF8D0BB1D1B88002BB2D1C046BD46D3
:1068A00008B080BD0040004144A5FFFF04A5FFFFE4
:1068B00080B588B000AFF860B9607A601E23FB181D
:1068C00000221A8000237B610023BB612D4A53689C
:1068D00080218B4353604DE07B68102B00D910233F
:1068E0007B617A687B69D31A7B60274B9B79DB07D6
:1068F000DB0FDBB2012B07D1234A937901210B4334
:106900009371214BA5221A721E4B204A1A80C04651
:106910001C4B1B7DDB07DB0FDBB2002BF8D01E23EB
:10692000FB1800221A8010E0FB68BA6812681A602F
:106930001E23FB181E22BA18128804321A80FB6824
:106940000433FB60BB680433BB601E23FB181A884A
:106950007B699A42E8D3BA697B69D318BB61094B5A
:106960000B4A1A80C046074B1B7DDB07DB0FDBB2EF
:10697000002BF8D07B68002BAED100231800BD4659
:1069800008B080BD004000410010004044A5FFFF5A
:1069900004A5FFFF80B586B000AFF860B960BB1DED
:1069A0001A801623FB1800221A80BB683B6116234D
:1069B000FB1800221A8020E0FB681B889AB23B6912
:1069C0001A803B6902333B61134B9B79DB07DB0F7A
:1069D000DBB2012B07D1104A937901210B4393714C
:1069E0000D4BA5221A72FB680233FB601623FB18BD
:1069F0001622BA18128802321A801623FA18BB1D02
:106A000012881B889A42D7D31623FB181B881800BC
:106A1000BD4606B080BDC0460010004080B582B0C3
:106A200000AF7860C0460F4B1B7DDB07DB0FDBB28E
:106A3000002BF8D00B4B2022FF321A837B680122F7
:106A400052421A60074B084A1A80C046054B1B7D0C
:106A5000DB07DB0FDBB2002BF8D0C046BD4602B02F
:106A600080BDC0460040004102A5FFFF80B582B056
:106A700000AF78603960114A536880218B435360BE
:106A80000E4B0F4A1A80C0460C4B1B7DDB07DB0FF9
:106A9000DBB2002BF8D03B681A687B681A60074BA2
:106AA000084A1A80C046054B1B7DDB07DB0FDBB2B3
:106AB000002BF8D0C046BD4602B080BD004000416A
:106AC00044A5FFFF04A5FFFF80B500AFC24A98238D
:106AD0000821D150C04A88230821D150BE49C32281
:106AE0008B5C012083438B54BB4B802252019A6103
:106AF000B94B802252019A60B7494C228B5C01202D
:106B000083438B54B44B01225A61B34B01229A60E8
:106B1000B14940228B5C012003438B54AE493022A3
:106B20008B5C0F208343181C032303438B54AA4B15
:106B300002225A60A84941228B5C022003438B54F5
:106B4000A54941228B5C012003438B54A24930228A
:106B50008B5C0F200340181C302303438B549E4B47
:106B6000802292019A619C4B802292019A609A49FC
:106B70004D228B5C012083438B54974B10225A612A
:106B8000954B10229A60944944228B5C0120034368
:106B90008B54914932228B5C0F208343181C0323B2
:106BA00003438B548C4B20225A608B4945228B5CCB
:106BB000022003438B54884945228B5C0120034308
:106BC0008B54854932228B5C0F200340181C3023E4
:106BD00003438B54804B8022D2019A617E4B8022EA
:106BE000D2019A607C494E228B5C012083438B54F6
:106BF000794B802252005A61774B802252009A6072
:106C0000754948228B5C012003438B54724934221E
:106C10008B5C0F208343181C032303438B546E4B60
:106C2000802292005A606C4949228B5C0220034307
:106C30008B54694949228B5C012003438B5466497C
:106C400034228B5C0F200340181C302303438B54E9
:106C5000614B802212029A615F4B802212029A607D
:106C60005D494F228B5C012083438B545A4B802219
:106C700052025A61584B802252029A605649502261
:106C80008B5C012003438B54534938228B5C0F20CB
:106C90008343181C032303438B544F4B80229202DF
:106CA0005A604D4951228B5C022003438B544A4960
:106CB00051228B5C012003438B54474938228B5C63
:106CC0000F200340181C302303438B54424B802277
:106CD00012045A61404B802212049A603E495722A6
:106CE0008B5C012003438B543B493B228B5C0F2080
:106CF0000340181C302303438B54374B8022D203AC
:106D00005A60354956228B5C022003438B5432492A
:106D100056228B5C012003438B542F493B228B5C12
:106D20000F208343181C032303438B542A4B8022D8
:106D300092045A61284B802292049A602649592273
:106D40008B5C012003438B5423493C228B5C0F2036
:106D50000340181C302303438B541F4B80225204E2
:106D60009A611D4B802252049A601B4958228B5C09
:106D7000012083438B54184B802212035A6016491A
:106D800053228B5C012083438B54134B8022D2020D
:106D90009A61114B8022D2029A600F4952228B5C79
:106DA000012083438B54C023DB058022D2029A61E9
:106DB0000949842280231B048B500749D7228B5C0E
:106DC000022003438B540449D7228B5C0120834368
:106DD0008B54C046BD4680BD0044004190B583B091
:106DE00000AF040008001100FB1D221C1A70BB1D1F
:106DF000021C1A707B1D0A1C1A70FB1D1B781A02DC
:106E0000BB1D1B781B011A437B1D1B781343222BD0
:106E100000D167E011DC102B43D006DC012B32D00F
:106E2000022B37D0002B28D09AE0122B46D03EDB25
:106E3000202B4AD0212B4ED092E080225200934248
:106E400000D171E080225200934206DC312B56D0F3
:106E5000322B5BD0302B4CD082E081225200934207
:106E600069D081225200934257DB3F4A934200D1BE
:106E70006FE03E4A934265D072E03D4B1A6A802330
:106E80001B0213406CE0C023DB05802212029A61D2
:106E9000002365E0C023DB05802212025A61002333
:106EA0005EE0334B1A6A8023DB01134058E0C023B5
:106EB000DB058022D2019A61002351E0C023DB056B
:106EC0008022D2015A6100234AE0294B1A6A8023AA
:106ED0009B01134044E0C023DB05802292019A61AC
:106EE00000233DE0C023DB05802292015A6100238C
:106EF00036E01F4B1A6A80235B01134030E0C02349
:106F0000DB05802252019A61002329E0C023DB05C2
:106F1000802252015A61002322E0C023DB05942223
:106F20000821995000231BE0C023DB05982208218B
:106F30009950002314E0C023DB059C2208219950BE
:106F400000230DE0C023DB058022D2025A6100231A
:106F500006E0C023DB058022D2029A610023FFE70E
:106F60001800BD4603B090BD0102000002020000FF
:106F70000044004180B500AF1B4AA023D2588023B3
:106F80001B0413400ED0184A9823D35808221340EC
:106F900004D0012200210120FFF720FF134B002223
:106FA0001A701EE0114B1B78002B02D0012B0CD065
:106FB00017E0002200210120FFF710FF0C4B0A22EE
:106FC0001A600A4B01221A700BE0094B1B68002B58
:106FD00006D1084B01221A80074B9847C04600E0B3
:106FE000C046BD4680BDC046004400415B04002051
:106FF000740400204825002091AC000080B584B0C6
:1070000000AF78600A00BB1C1A800A23FB1800221C
:107010001A80BB1C1A8879688C4B18008C4B9847D7
:107020000A23FB181B88894AD35C032B40D002DC5F
:10703000002B07D0F7E0052B00D1A2E0072B00D1F1
:10704000CAE0F0E0C0235B02FB601FE0814B9B794C
:10705000DB07DB0FDBB2012B07D17E4A93790121DD
:107060000B4393717B4BA5221A7280235A00FB6855
:1070700011001800784B9847031E03D1FB681800D5
:10708000764B9847FB680133FF33FB60FB68744A1B
:107090009342DBD90A23FB181B886C4A0221D15486
:1070A0000A23FB180A22BA18128801321A80BAE0A1
:1070B0000A23FB181B88654A0421D1540A23FB18B4
:1070C0000A22BA18128801321A800A23FB181B8878
:1070D0005E4AD35C1AB20A23FB181B8801335B4952
:1070E000CB5C1B021BB213431BB29AB25D4B1A80DE
:1070F0000A23FB180A22BA18128802321A800A23BD
:10710000FB181B88514AD35C19000A23FB181B8803
:1071100001334E4AD35C1B020A001A430A23FB18B0
:107120001B8802334949CB5C1B041A430A23FB1812
:107130001B8803334549CB5C1B0613431A004A4B9B
:107140001A600A23FB180A22BA18128804321A801D
:107150000A23FB181A883D4BD118424B1B881A0092
:10716000424B18003A4B98473E4B19880A23FB18AC
:107170000A22BA1812888A181A803D4B01221A7006
:1071800051E0394B1B683B4A934258D9364B1A6839
:10719000C0235B029A4254D8354B1B78002B0DD08C
:1071A000314B1B68A022520298182E4B1A882F4B85
:1071B0001900314B98472E4B00221A700A23FB18F6
:1071C0001B88224A0621D1540A23FB180A22BA1826
:1071D000128801321A8026E0284B294A1A6080233F
:1071E0005B00284A190010001B4B9847031E03D16F
:1071F000244B1800194B9847204B224804221900B1
:107200001D4B98470A23FB181B88104A0821D154AC
:107210000A23FB180A22BA18128801321A801A4B64
:1072200001221A80C0460A23FB181A8807497B6886
:107230001800074B98470A23FB181B8802E0C0463A
:1072400000E0C0461800BD4604B080BD48240020C0
:10725000B9C8000000100040456700008B670000BF
:10726000FFBF0200600400205C04002048230020CF
:1072700068040020FF3F0000D9670000640400207C
:10728000AC56FF4300F2030048250020B0B500AF24
:10729000474B8022D2019A60464B984762B6464BD4
:1072A0009B79DB07DB0FDBB2012B07D1424A9379D5
:1072B00001210B439371404BA5221A723E4B1B7860
:1072C0009B07DB0FDBB2002B19D13B4A53780F2110
:1072D0008B43191C0B230B435370374A93780F21B0
:1072E0008B43191C0A230B439370334A53790121B2
:1072F0000B435371304A137802210B4313702F4B09
:1073000098472F4B9847031E04D12E4B1A78022121
:107310000A431A702C4B9847031E06D1294B1A7842
:1073200001210A431A70294B9847294B9847294B4A
:107330009847294B9847294B9847294B9847294B01
:1073400098470020284B9847284B98470423002251
:1073500000210020264CA047A0235A028023DB01F5
:1073600011001800234B984703001A00224B1A60A3
:10737000012200210120214B9847214B1B88002B23
:107380000ED10D4B9B79DB07DB0FDBB2012B07D155
:10739000094A937901210B439371074BA5221A7275
:1073A000184B9847184B9847184B9847E5E7C04645
:1073B00000ED00E0257E0000001000409DAB0000C5
:1073C00031AC000050250020D1AB000091AC000092
:1073D000B5AF0000C96A00003181000025770000C8
:1073E000A1860000C962000015420000514400005F
:1073F000E5440000CD5E00004C250020DD6D00005E
:1074000048250020D5630000E9480000858200007F
:1074100090B585B000AF040008001100FB1D221CD0
:107420001A703B1D021C1A80BB1D0A1C1A70BB1D62
:107430001B78012B03D10C23FB1802221A70BB1DF1
:107440001B78022B03D10C23FB1801221A705F4B0F
:107450000A221A8006E05D4B1B889BB2002B01D1EB
:107460000123AFE0FB1D1B785B015BB208221343D5
:107470005BB2D9B20C23FA1801230020544CA04768
:10748000031EE8D03B1D1B881B0A9BB2DAB20C23FB
:10749000FB181A703B1D1B88DAB20C23FB185A70BC
:1074A0004A4B0A221A8006E0484B1B889BB2002BED
:1074B00001D1012386E0FB1D1B785B015BB2082232
:1074C00013435BB2D9B20C23FA1802230420404CB8
:1074D000A047031EE8D00C23FB1801221A703B4B77
:1074E0000A221A8006E0394B1B889BB2002B01D17F
:1074F000012367E0FB1D1B785B015BB2082213438D
:107500005BB2D9B20C23FA1801230120304CA047FA
:10751000031EE8D0BB1D1B78022B52D10C23FB1895
:107520000F221A700C23FB18A0225A70274B0A2234
:107530001A8006E0254B1B889BB2002B01D101234A
:1075400040E00C23FA18022300211920204CA04708
:10755000031EEFD00C23FB1804221A701B4B0A22C7
:107560001A8006E0194B1B889BB2002B01D1012326
:1075700028E00C23FA18012300211B20144CA047FB
:10758000031EEFD00C23FB1802221A700F4B0A22A5
:107590001A8006E00D4B1B889BB2002B01D1012302
:1075A00010E0FB1D1B785B015BB2082213435BB24A
:1075B000D9B20C23FA1801230120054CA047031E61
:1075C000E8D000231800BD4605B090BDF43100207E
:1075D000A979000080B582B000AF0200FB1D1A70CF
:1075E000FB1D1B787F2B09D8064BFA1D1278110062
:1075F0001F220A40012191400A001A60C046BD4680
:1076000002B080BD00E100E080B582B000AF0200B2
:10761000FB1D1A70FB1D1B787F2B0ED80949FB1D23
:107620001B781A001F23134001229A401300802266
:107630008B50BFF34F8FBFF36F8FC046BD4602B074
:1076400080BDC04600E100E0B0B582B000AF0200EE
:107650003960FB1D1A70FB1D1B787F2B28D82F4C1F
:10766000FB1D1B785BB29B082C49FA1D127852B2A5
:107670009208C03292005258F91D0978080003217F
:107680000140C900FF2088400100C94311403A6809
:107690009201FF201040FA1D1278150003222A40A3
:1076A000D200904002000A43C0339B001A5131E0DF
:1076B0001B4CFB1D1B781A000F231340083B990835
:1076C000174AFB1D1B7818000F230340083B9B083B
:1076D00006339B00D31804331B68FA1D1278100080
:1076E00003220240D200FF2090400200D2431A4001
:1076F0003B689B01FF201840FB1D1B781D000323E6
:107700002B40DB00984003001A438B1D9B00E318BD
:1077100004331A60C046BD4602B0B0BD00E100E0CF
:1077200000ED00E080B500AF674A136A80210B438B
:107730001362664A53883F218B43191C19230B435C
:107740005380624A538862490B4053805F4A538892
:107750008021C9010B4353805E4BDB69DB07DB0FE4
:10776000DBB2002B1BD05B4B1B689B07DB0FDBB234
:10777000002B14D0C046574BDB699B07DB0FDBB2F5
:10778000002BF8D1534A136802218B431360C04683
:10779000504BDB699B07DB0FDBB2002BF8D14D4A66
:1077A000136801210B431360C0464A4BDB69DB07BA
:1077B000DB0FDBB2002BF8D1464A136846490B4079
:1077C0001360444A136845490B401360414A1368EB
:1077D00043490B4013603F4A136842490B40136012
:1077E0003C4A136840490B4013603A4A13688021B1
:1077F0008B431360374A13681C218B430C210B43C6
:107800001360C046334BDB6907221340FAD1314A7B
:10781000136836490B40802189020B431360C04630
:107820002C4BDB6907221340FAD12A4A13683049EE
:107830000B401360274A5368802189020B43536031
:10784000244A53682B490B405360224A53682A4903
:107850000B4053601F4A536828490B4053601D4A30
:10786000536840218B4353601A4A536807218B4366
:107870005360184B02221A73164A937D02218B43E0
:107880009375144A937D01218B439375114A937D1F
:1078900004218B439375C0460E4BDB6907221340CE
:1078A000FAD10C4A136802210B4313600E20FFF734
:1078B000ABFE01210E20FFF7C7FE0E20FFF78AFE68
:1078C000C046BD4680BDC04600040040000C0040DC
:1078D000FFF0FFFF001C0042FFFFFFBFFFFFFFDFC5
:1078E000FFFFFFEFFFFFFFF0FFFEFFFFFFFFFCFFCB
:1078F000FFFFCFFFFFDFFFFFFF3FFFFFFFFDFFFFAA
:10790000B0B586B000AF04000800BA6019000E23BD
:10791000FB18221C1A800D23FB18021C1A70BB1DB9
:107920000A1C1A801523FB1800221A701623FB1854
:1079300000221A801523FB182822BA1812781A7010
:107940001523FB181B78012B05D0022B14D0002B1C
:1079500023D1012324E01623FC18BB1D1D88BA681F
:107960000D23FB1819780E23FB1818882B0000F044
:10797000F7F80300238010E01623FC18BB1D1D88B8
:10798000BA680D23FB1819780E23FB1818882B00F2
:1079900000F00AF803002380C0461623FB181B885A
:1079A0001800BD4606B0B0BD90B587B000AF04006A
:1079B0000800BA6019000E23FB18221C1A800D2340
:1079C000FB18021C1A70BB1D0A1C1A801623FB1818
:1079D00000221A805C4B1B78002B03D0012B00D1B6
:1079E0008BE0ACE0C023DB05802252045A611623F1
:1079F000FB181B880E22BA181288120A92B2D1B252
:107A0000524AD1541623FB181A881623FB18013248
:107A10001A801623FB181B880E22BA181288D1B2BE
:107A20004A4AD1541623FB181A881623FB18013230
:107A30001A801623FB181B880D22BA18127804210D
:107A40000A43D1B2414AD1541623FB181A8816238F
:107A5000FB1801321A80BB1D1A881623FB181B88DD
:107A6000D218B923DB009A4207DDBB1D1622BA18D3
:107A70001288B921C9008A1A1A801623FB181A889D
:107A8000324BD018BB1D1A88BB681900304B984781
:107A90001623FB181622B918BA1D098812888A18ED
:107AA0001A802A4B1622BA182A4912885A52274B92
:107AB000294A00219952254AB9231B010021D1529C
:107AC000224B244A9A5AB923DB009A4204D91F4B0D
:107AD000204AB921C90099521B4B1B780133DAB2F5
:107AE000194B1A701D4A937D01210B4393751B4A54
:107AF000937D04210B43937521E0144B154A9B5A47
:107B0000002B01D000231BE0104AB9231B01D25ADD
:107B10000E4B11495B5A9A4201D0002310E00A4BE8
:107B20001B78013BDAB2084B1A70C023DB058022B8
:107B300052049A61054AB9231B01D35A00E000237D
:107B40001800BD4607B090BD6904002054260020EF
:107B5000B9C80000940B0000920B0000001C00420A
:107B600090B587B000AF04000800BA6019000E237A
:107B7000FB18221C1A800D23FB18021C1A70BB1D57
:107B80000A1C1A801623FB1800221A80504B1B78FF
:107B9000002B02D0012B66D094E0C023DB058022AD
:107BA00052045A611623FB181B880E22BA18128839
:107BB000120A92B2D1B2474AD1541623FB181A883E
:107BC0001623FB1801321A801623FB181B880E227D
:107BD000BA181288D1B23F4AD1541623FB181A881A
:107BE0001623FB1801321A801623FB181B88394A0A
:107BF0000D2179180978D1541623FB181A881623F9
:107C0000FB1801321A801623FA18BB1D12881B8834
:107C1000D31899B22F4B304A99522E4B2F4A00213C
:107C200099522C4AB9231B010021D152294B2A4ACF
:107C30009A5AB923DB009A4204D9264B264AB92125
:107C4000C9009952224B1B780133DAB2204B1A70CB
:107C5000234A937D01210B439375214A937D04218F
:107C60000B4393752EE01B4B1B4A9B5A002B01D0F4
:107C7000002328E0174AB9231B01D25A154B174994
:107C80005B5A9A4201D000231DE0124AB9231B011E
:107C9000D35A033B1A001349BB681800124B98478C
:107CA0000B4B1B78013BDAB2094B1A70C023DB0582
:107CB000802252049A61074AB9231B01D35A033B1D
:107CC0009BB200E000231800BD4607B090BDC0463F
:107CD0006A04002054260020940B0000920B000040
:107CE000001C00421F2C0020B9C8000080B500AF66
:107CF000374B1B7E5B07DB0FDBB2002B29D0354AED
:107D0000B9231B01D35A1800314B9B6AD9B2314AAF
:107D1000B923DB001218D3180A1C1A702D4AB92394
:107D20001B01D35A013399B22A4AB9231B01D152FC
:107D3000284B294A9B585A1C264B27495A50254BF9
:107D4000264A9B5A002B04D1214A137D04210B4360
:107D500013751F4B1B7EDB07DB0FDBB2002B34D010
:107D60001C4B1F4A9B585A1C1A4B1D495A50194A02
:107D7000B9231B01D25A174B1A495B5A9A4223D195
:107D8000144B164A9B5A002B18D0114B114A154917
:107D9000525A11000F4A525C9A620E4B114A9B5A7A
:107DA000013399B20B4B0F4A99520A4B0B4A9B5A1B
:107DB000013B99B2074B094A995206E0044A137DE8
:107DC00001210B43137500E0C046BD4680BDC0468F
:107DD000001C0042542600209C0B0000940B000065
:107DE000980B0000920B000080B582B000AF0C4BE6
:107DF0001B6A7B607B681B0C1B047B607B68022218
:107E000013437B60064B7A681A62C046044BDB68FA
:107E100008221340FAD0C046BD4602B080BDC0461D
:107E20000008004080B582B000AF2D4A53681E2183
:107E30008B4304210B4353602A4B1B689B0E7B60D2
:107E4000294B1B689B059B0D3B60284B00229A84A5
:107E5000C046264BDB6810221340FAD0234B7A68C9
:107E600092021204110C3A689205920D0A439A622A
:107E70001E4A938C08210B4393841C4A938C8021C7
:107E8000C9000B439384194A938C04218B43938438
:107E9000164A938C80218B439384144A938C02213D
:107EA0000B439384114A938C802149000B439384A4
:107EB000C0460E4BDB6810221340FAD00C4B8022D8
:107EC00052009A600A4B0B4A5A60C046084B5B78D6
:107ED000DBB25BB2002BF9DBC046BD4602B080BD11
:107EE00000400041246080002860800000080040BD
:107EF000000C00400007210080B582B000AF0200F6
:107F0000FB1D1A70FB1D1B787F2B09D8064BFA1D31
:107F1000127811001F220A40012191400A001A60C4
:107F2000C046BD4602B080BD00E100E080B582B031
:107F300000AF0200FB1D1A70FB1D1B787F2B0ED8B3
:107F40000949FB1D1B781A001F23134001229A4088
:107F5000130080228B50BFF34F8FBFF36F8FC0464B
:107F6000BD4602B080BDC04600E100E0B0B582B0C1
:107F700000AF02003960FB1D1A70FB1D1B787F2BC0
:107F800028D82F4CFB1D1B785BB29B082C49FA1D8F
:107F9000127852B29208C03292005258F91D0978F4
:107FA000080003210140C900FF2088400100C943A7
:107FB00011403A689201FF201040FA1D1278150016
:107FC00003222A40D200904002000A43C0339B00A3
:107FD0001A5131E01B4CFB1D1B781A000F23134074
:107FE000083B9908174AFB1D1B7818000F23034014
:107FF000083B9B0806339B00D31804331B68FA1D0B
:108000001278100003220240D200FF2090400200AC
:10801000D2431A403B689B01FF201840FB1D1B7890
:108020001D0003232B40DB00984003001A438B1DE7
:108030009B00E31804331A60C046BD4602B0B0BDD1
:1080400000E100E000ED00E080B582B000AF02008A
:10805000BB1D1A80084ABB1D1B88013B9BB21383C2
:10806000054A53793F210B40191C40230B435371A0
:10807000C046BD4602B080BD002C004280B500AFB6
:10808000224B9B7B214BFF229A73214B1B685A1C6E
:108090001F4B1A601F4B1B685A1C1E4B1A601E4A4E
:1080A00085239B00D35A9BB2013399B21A4A852388
:1080B0009B00D152184B194A9B5A9BB2013399B27B
:1080C000154B164A9952144B154A9B5A9BB20133D1
:1080D00099B2114B124A99520F4B124A9B5A9BB2BA
:1080E000013399B20C4B0F4A99520F4B1B889BB22C
:1080F000013B9AB20C4B1A800C4B1B889BB2013B84
:108100009AB20A4B1A80C046BD4680BD002C004280
:108110006C040020F8310020FC31002054040000E1
:1081200094060000D4080000F4310020F63100204D
:1081300080B500AF374A53883F218B43191C1B235E
:108140000B435380334A538833490B405380314AA1
:1081500053888021C9010B435380304AD37A0721C9
:108160008B43D3722D4A136A802109010B4313629A
:108170002B4A13880C218B431380294A13882949E1
:108180000B40191CA023DB000B431380244A1388E7
:1081900025490B401380224A138860218B43191C08
:1081A00020230B4313801E4B012252421A831C4B87
:1081B000012252425A831A4A537901218B43537147
:1081C000174A138802210B431380154B0122524298
:1081D0001A83134B012252425A83C046104BDB7B59
:1081E0001B06DB0FDBB2012BF8D01220FFF79EFE3F
:1081F0000B4A537B01210B43537300211220FFF7DD
:10820000B5FE1220FFF778FE4B20FFF71DFFC0469A
:10821000BD4680BD000C0040FFF0FFFF00040040A1
:10822000002C0042FFF8FFFFFFCFFFFF80B582B0B8
:1082300000AF7860104B00221A60104B1B88002B97
:108240000ED10F4B9B79DB07DB0FDBB2012B07D184
:108250000B4A937901210B439371094BA5221A72A2
:10826000054B1A687B689A4200D8E6E7C046C046CC
:10827000BD4602B080BDC046F83100204825002030
:1082800000100040B0B500AF9E4B1B68002B00D122
:1082900035E19D4A88239B00D358002B08D09A4A89
:1082A00088239B00D358591E974A88239B00D1509E
:1082B000954A8C23DB00D358002B08D0924A8C239C
:1082C000DB00D358591E904A8C23DB00D1508E4AD4
:1082D000D423DB00D358002B08D08B4AD423DB00F7
:1082E000D358591E884AD423DB00D150864A8E23A6
:1082F0001B01D358002B08D0834A8E231B01D3586F
:10830000591E814A8E231B01D150804B804A9A5CB2
:1083100080495B5C1B0213439BB2002B1FD07B4B3D
:108320007B4A9A5C7B495B5C1B0213439BB2013B1B
:1083300099B2764B764AFF2008400500985C0024ED
:108340002040041C281C20439854090A88B29B181A
:108350005A7800210A40111C021C0A435A706B4BC8
:108360006D4A9A5C6D495B5C1B0213439BB2002B08
:108370001FD0664B684A9A5C68495B5C1B021343DA
:108380009BB2013B99B2614B634AFF200840050054
:10839000985C00242040041C281C20439854090A9F
:1083A00088B29B185A7800210A40111C021C0A430B
:1083B0005A70564B5A4A9A5C5A495B5C1B021343EB
:1083C0009BB2002B1FD0514B554A9A5C55495B5CC0
:1083D0001B0213439BB2013B99B24C4B504AFF2006
:1083E00008400500985C00242040041C281C204301
:1083F0009854090A88B29B185A7800210A40111C27
:10840000021C0A435A70414B474A9A5C47495B5CDD
:108410001B0213439BB2002B1FD03C4B424A9A5C79
:1084200042495B5C1B0213439BB2013B99B2374B41
:108430003D4AFF2008400500985C00242040041CB1
:10844000281C20439854090A88B29B185A780021A6
:108450000A40111C021C0A435A702C4B344A9A5C85
:1084600034495B5C1B0213439BB2002B1FD0274B8C
:108470002F4A9A5C2F495B5C1B0213439BB2013B62
:1084800099B2224B2A4AFF2008400500985C00243C
:108490002040041C281C20439854090A88B29B18C9
:1084A0005A7800210A40111C021C0A435A70224BC0
:1084B0001B685A1C204B1A60204B1A68114B1B6812
:1084C000D2181E4B1A601D4B1B681D4A934212D9CD
:1084D0001A4B00221A601B4B1B685A1C194B1A605E
:1084E000194B1B68002B04D0174B1B685A1E164BE8
:1084F0001A60164B9847034B00221A6000E0C046F2
:10850000BD46B0BD6C040020FC310020CC0500202D
:10851000E3050000E4050000C80B0000C90B0000E3
:10852000AD110000AE11000092170000931700007B
:10853000771D0000781D00007004002078040020E2
:108540000F2700007C04002074040020756F0000D9
:1085500080B582B000AF0200FB1D1A70FB1D1B78B6
:108560007F2B09D8064BFA1D127811001F220A40F2
:10857000012191400A001A60C046BD4602B080BD8C
:1085800000E100E080B582B000AF0200FB1D1A7070
:10859000FB1D1B787F2B0ED80949FB1D1B781A0089
:1085A0001F23134001229A40130080228B50BFF3F7
:1085B0004F8FBFF36F8FC046BD4602B080BDC0462F
:1085C00000E100E0B0B582B000AF02003960FB1DF1
:1085D0001A70FB1D1B787F2B28D82F4CFB1D1B7896
:1085E0005BB29B082C49FA1D127852B29208C03235
:1085F00092005258F91D0978080003210140C90072
:10860000FF2088400100C94311403A689201FF20D1
:108610001040FA1D1278150003222A40D200904023
:1086200002000A43C0339B001A5131E01B4CFB1D72
:108630001B781A000F231340083B9908174AFB1DAB
:108640001B7818000F230340083B9B0806339B0050
:10865000D31804331B68FA1D12781000032202405D
:10866000D200FF2090400200D2431A403B689B0199
:10867000FF201840FB1D1B781D0003232B40DB004F
:10868000984003001A438B1D9B00E31804331A60C3
:10869000C046BD4602B0B0BD00E100E000ED00E024
:1086A00080B582B000AFFB1D00221A7009E0FB1DEF
:1086B0001B78180000F00DF8FB1D1A78FB1D013225
:1086C0001A70FB1D1B78032BF1D9C046BD4602B0C2
:1086D00080BDB0B588B000AF0200FB1D1A7000234A
:1086E00000243B617C6100230024BB60FC6000230C
:1086F000FB610023EF4CBB60FC60FB1D1B78012B72
:108700002FD003DC002B07D000F0E7FB022B4DD06D
:10871000032B70D000F0E1FBE74A136A20210B43E2
:108720001362FB1D1A78E5491300DB009B189B01BF
:10873000E34A5A50FB1D1A78E0491300DB009B18EE
:108740009B01CB18043317221A60FB1D1A78DB49F2
:108750001300DB009B189B01CB1808330C221A7006
:108760006EE0D54A136A10210B431362FB1D1A7881
:10877000D2491300DB009B189B01D24A5A50FB1DC3
:108780001A78CE491300DB009B189B01CB180433E9
:1087900016221A60FB1D1A78C8491300DB009B18CB
:1087A0009B01CB1808330B221A7049E0C24A136AA6
:1087B00004210B431362FB1D1A78C0491300DB0030
:1087C0009B189B01C04A5A50FB1D1A78BB491300E5
:1087D000DB009B189B01CB18043314221A60FB1D8D
:1087E0001A78B6491300DB009B189B01CB1808339D
:1087F00009221A7024E0B04A136A08210B4313625D
:10880000FB1D1A78AD491300DB009B189B01AF4A92
:108810005A50FB1D1A78A9491300DB009B189B01D5
:10882000CB18043315221A60FB1D1A78A3491300D4
:10883000DB009B189B01CB1808330A221A70C04634
:108840009D4AD37A07218B43D372A14A53885B0494
:108850005B0C53809E4AFB1D197898480B00DB0087
:108860005B189B01C31804331B68DBB2191C3F2340
:108870000B40D9B25388081C3F2108403F218B434D
:10888000191C031C0B435380914A538891490B4098
:1088900053808F4A53888021C9010B435380FB1DAD
:1088A0001A7886491300DB009B189B015B581A68F5
:1088B00002218A431A60C046FB1D1A787F491300C3
:1088C000DB009B189B015B58DB699B07DB0FDBB26E
:1088D000002BF1D1FB1D1A7878491300DB009B189F
:1088E0009B015B581A6801210A431A60C046FB1DB0
:1088F0001A7872491300DB009B189B015B58DB69F7
:10890000DB07DB0FDBB2002BF1D1FB1D1A786B49C3
:108910001300DB009B189B015B581A688021C90576
:108920000A431A60FB1D1A7864491300DB009B1888
:108930009B015B581A6868490A401A60FB1D1A7847
:108940005E491300DB009B189B015B581A68634962
:108950000A401A60FB1D1A7858491300DB009B1867
:108960009B015B581A685E490A401A60FB1D1A7821
:1089700052491300DB009B189B015B581A68594948
:108980000A401A60FB1D1A784C491300DB009B1843
:108990009B015B581A6854490A401A60FB1D1A78FB
:1089A00046491300DB009B189B015B581A68802125
:1089B0008A431A60FB1D1A7840491300DB009B189C
:1089C0009B015B581A681C218A4304210A431A60E0
:1089D000FB1D1A7839491300DB009B189B015B587B
:1089E0001A6842490A40802189020A431A60FB1D25
:1089F0001A7832491300DB009B189B015B581A68F8
:108A00003B490A40802149030A431A60FB1D1A783A
:108A10002A491300DB009B189B015B585A683549B3
:108A20000A405A60FB1D1A7824491300DB009B188A
:108A30009B015B585A68802189000A435A60FB1DDC
:108A40001A781E491300DB009B189B015B585A687B
:108A500025490A405A60FB1D1A782749382013001F
:108A60005B009B189B009B18CB181B185B799B061F
:108A70009B0FDBB2012B45D0022B60D1FB1D1A7876
:108A80000E491300DB009B189B015B581A681B49B9
:108A90000A40802149040A431A60FB1D1A780749DD
:108AA0001300DB009B189B015B585A6814490A406D
:108AB0005A6051E00000224000040040FC310020D8
:108AC000001400420010004200080042000C004266
:108AD000000C0040FFF0FFFFFFFFFFDFFFFFFFEF95
:108AE000FFFF3FFFFF1FFFFFFFFEFFFFFFFFFCFF3A
:108AF000FFFFCFFFFFFBFFFFC43D0020FFFFFFF0A4
:108B0000FFDFFFFFFB1D1A7838491300DB009B18BD
:108B10009B015B581A6836490A40802149040A4380
:108B20001A60FB1D1A7831491300DB009B189B016A
:108B30005B585A68802189010A435A600CE0FB1D8A
:108B40001A782A491300DB009B189B015B581A68AE
:108B500027490A401A60C046FB1D1A78254938206B
:108B600013005B009B189B009B18CB181B185B79AC
:108B70001B069B0FDBB2022B0CD1FB1D1A781B4985
:108B80001300DB009B189B015B585A6840210A4385
:108B90005A600CE0FB1D1A7814491300DB009B1887
:108BA0009B015B585A6840218A435A60C046FB1DAE
:108BB0001A781049382013005B009B189B009B1803
:108BC000CB181B185B791B071B0FDBB2072B13D1CC
:108BD000FB1D1A7805491300DB009B189B015B58AD
:108BE0005A6807210A435A6013E0C046FC3100204E
:108BF000FFFFFFF0C43D0020FB1D1A78B8491300A9
:108C0000DB009B189B015B585A6807218A435A6016
:108C1000C046FB1D1A78B34913005B009B189B00EC
:108C20009B18CB1830335A7A997A09020A43D97AB9
:108C300009040A431B7B1B061343FB61FA69962355
:108C40009B009A4234D0FA699623DB009A422FD0D7
:108C5000FA6996231B019A422AD0FA6996235B018E
:108C60009A4225D0FA6996239B019A4220D0FA694C
:108C70009623DB019A421BD0FA6996231B029A4283
:108C800016D0FA69E1231B029A4211D0FA69E12356
:108C90005B029A420CD0FA69FA235B029A4207D02F
:108CA000FA69FA239B029A4202D096231B02FB61C7
:108CB000FB1D1A788A491300DB009B189B015C5846
:108CC000894BF8699847021C884B101C9847884DBF
:108CD0000022884BA84702000B0010001900864DA7
:108CE0000022864BA84702000B00854D00208549D5
:108CF000A84702000B00100019007D4D0022824B96
:108D0000A84702000B0011001A00804B0800110058
:108D1000984703009BB2A381FB1D1A78704913008A
:108D2000DB009B189B015A58937D04210B439375DC
:108D3000C046FB1D1A786A491300DB009B189B0193
:108D40005B58DB6907221340F3D1FB1D1A78644995
:108D50001300DB009B189B015B585A688021890235
:108D60000A435A60C046FB1D1A785D491300DB00B8
:108D70009B189B015B58DB6907221340F3D1FB1D55
:108D80001A7857491300DB009B189B015B585A68FF
:108D9000802149020A435A60C046FB1D1A78504997
:108DA0001300DB009B189B015B58DB690722134013
:108DB000F3D1FB1D1A784A491300DB009B189B0175
:108DC0005B581A6802210A431A60FB1D1A7845494C
:108DD00013005B009B189B009B18CB1830335A7A0A
:108DE000997A09020A43D97A09040A431B7B1B06B4
:108DF00013431A00464B1000984702000B003E4CEC
:108E000000204449A04703000C003B617C61384CC2
:108E1000BA68FB6838697969A04703000C003B61B8
:108E20007C61334C00223C4B38697969A0470300D0
:108E30000C003B617C61304C0022384B3869796909
:108E4000A04703000C003B617C61FB1D1C782F4B8D
:108E5000386979699847030098B2214984239A00B8
:108E60002300DB001B199B01CB189B18021C1A80E6
:108E7000FB1D1A781A491300DB009B189B01CB18C5
:108E800008331B78DBB25BB21800FFF77BFBFB1DDE
:108E90001A7813491300DB009B189B01CB18083389
:108EA0001B78DBB25BB201211800FFF78BFBFB1DC7
:108EB0001A780B491300DB009B189B01CB18083371
:108EC0001B78DBB25BB21800FFF742FBFB1D1B787F
:108ED000022219000020124B9847BD4608B0B0BDD1
:108EE000FC310020C43D002005B10000FDC300009E
:108EF000F9B700000000304091B1000060E3864106
:108F0000F9BC00000000F03F0000F040C9B00000D4
:108F10008DC3000080842E410000104000005940A5
:108F2000DD6D000090B583B000AF39601100FB1D0E
:108F3000021C1A703B1D0A1C1A803B1D1B88002B4B
:108F400001D100236CE0FB1D1B78012219000020D9
:108F5000354B98473B1D1A8880235B009A4203D902
:108F60003B1D802252001A80FB1D1A781300DB0083
:108F70009B189B0108331A002C4BD318581C3B1D1F
:108F80001A883B6819002A4B9847FB1D1A78274915
:108F900028481300DB009B189B01CB181B183A1DB7
:108FA00012881A80FB1D1A78204883239900130029
:108FB000DB009B189B01C3185B1800221A80FB1D65
:108FC0001A781A491300DB009B189B015A58137D2D
:108FD00004210B431375FB1D1A7814491300DB00A1
:108FE0009B189B015A58937D01210B439375FB1DE0
:108FF0001A780E488D2399001300DB009B189B0103
:10900000C3185B181B68591C084C8D23980013006B
:10901000DB009B189B01E3181B1819603B1D1B8884
:109020001800BD4603B090BDDD6D0000FC3100208E
:10903000B9C800000A02000090B585B000AF3960E1
:109040001100FB1D021C1A703B1D0A1C1A800E2306
:10905000FB1800221A80FB1D1A7848494848130063
:10906000DB009B189B01CB181B181B889BB2002BA5
:109070000ED1FB1D1A784148852399001300DB00AF
:109080009B189B01C3185B1800221A80002370E014
:10909000FB1D1A783948842399001300DB009B18C4
:1090A0009B01C3185B181B8899B2FB1D1A78334CBF
:1090B000852398001300DB009B189B01E3181B1805
:1090C0001B889BB2994201D9002352E0FB1D1A78FC
:1090D0000E23F91829482A4C1300DB009B189B012A
:1090E000C3181B191B880B800E23FA183B1D12880E
:1090F0001B889A4204D90E23FB183A1D12881A8045
:10910000FB1D1A781300DB009B189B010933FF330A
:109110001A001A4BD318591C0E23FB181A883B68E7
:109120001800184B9847FB1D1A781449144813006F
:10913000DB009B189B01CB181B1800221A80FB1D1B
:109140001A780E488E2399001300DB009B189B01B0
:10915000C3185B181B68591C084C8E239800130019
:10916000DB009B189B01E3181B1819600E23FB18EA
:109170001B881800BD4605B090BDC046FC310020DC
:109180000E020000B9C80000B0B582B000AF020006
:10919000FB1D1A70FB1D1A78C4491300DB009B18D5
:1091A0009B015B585B8B9B06DB0FDBB2002B23D054
:1091B000FB1D1A78BD49BE481300DB009B189B01BC
:1091C000CB181B181B889BB201339CB2B749B84817
:1091D0001300DB009B189B01CB181B18221C1A8064
:1091E000FB1D1A78B1491300DB009B189B015A58EC
:1091F000538B20210B435383FB1D1A78AB4913007B
:10920000DB009B189B015B585B8BDB06DB0FDBB243
:10921000002B25D0FB1D1A78A4488B23990013003E
:10922000DB009B189B01C3185B181B889BB20133A2
:109230009CB29E488B2399001300DB009B189B0176
:10924000C3185B18221C1A80FB1D1A78974913005B
:10925000DB009B189B015A58538B10210B435383FF
:10926000FB1D1A7891491300DB009B189B015B588A
:109270005B8B5B07DB0FDBB2002B23D0FB1D1A7867
:109280008A498C481300DB009B189B01CB181B18E4
:109290001B889BB201339CB2844986481300DB00D3
:1092A0009B189B01CB181B18221C1A80FB1D1A78D7
:1092B0007E491300DB009B189B015A58538B0421F5
:1092C0000B435383FB1D1A7878491300DB009B186E
:1092D0009B015B585B8B9B07DB0FDBB2002B25D020
:1092E000FB1D1A7871488C2399001300DB009B1832
:1092F0009B01C3185B181B889BB201339CB26B485F
:109300008C2399001300DB009B189B01C3185B188A
:10931000221C1A80FB1D1A7864491300DB009B187D
:109320009B015A58538B02210B435383FB1D1A7820
:109330005E491300DB009B189B015B585B8BDB07CE
:10934000DB0FDBB2002B23D0FB1D1A7857495A489C
:109350001300DB009B189B01CB181B181B889BB2CA
:1093600001339CB2514954481300DB009B189B0108
:10937000CB181B18221C1A80FB1D1A784B491300AE
:10938000DB009B189B015A58538B01210B435383DD
:10939000FB1D1A7845491300DB009B189B015B58A5
:1093A0001B7E5B07DB0FDBB2002B00D18AE0FB1DCD
:1093B0001A783E4941481300DB009B189B01CB18EB
:1093C0001B181B889BB201339CB238493B481300E1
:1093D000DB009B189B01CB181B18221C1A80FB1D5D
:1093E0001A78324936481300DB009B189B01CB18D2
:1093F0001B181B889BB2FF2B0BD9FB1D1A782B491E
:109400002F481300DB009B189B01CB181B18002270
:109410001A80FB1D1A78FB1D19782448284C0B0074
:10942000DB005B189B01C3181B191B889BB21D0036
:10943000FB1D19781D480B00DB005B189B011B58B6
:109440001B8D9BB2DCB219480A23FF3319001300AD
:10945000DB009B189B01C3185B195B18221C1A7058
:10946000FB1D1A78114916481300DB009B189B015D
:10947000CB181B181B889BB201339CB20B491048B8
:109480001300DB009B189B01CB181B18221C1A80B1
:10949000FB1D1A780548852399001300DB009B18F3
:1094A0009B01C3185B1800221A80FBE0FC310020EE
:1094B0002A0200002E0200003202000026020000F4
:1094C0000E020000FB1D1A7878491300DB009B1880
:1094D0009B015B581B7E9B07DB0FDBB2002B45D04B
:1094E000FB1D1A7871488A2399001300DB009B1832
:1094F0009B01C3185B181B889BB201339CB26B485D
:109500008A2399001300DB009B189B01C3185B188A
:10951000221C1A80FB1D1A7864491300DB009B187B
:109520009B015A58137E02210B431376FB1D1B78B7
:109530000222190000205E4B9847FB1D1A785B49F8
:109540001300DB009B189B015A58137D02210B432B
:109550001375FB1D1A7855491300DB009B189B01FE
:109560005A58937D04210B4393759BE0FB1D1A7899
:109570004E491300DB009B189B015B581B7EDB07E9
:10958000DB0FDBB2002B00D18CE0FB1D1A784748C3
:10959000892399001300DB009B189B01C3185B18FB
:1095A0001B889BB201339CB2404889239900130069
:1095B000DB009B189B01C3185B18221C1A80FB1D43
:1095C0001A783A48832399001300DB009B189B010B
:1095D000C3185B181B8899B2FB1D1A783348354CA9
:1095E0001300DB009B189B01C3181B191B889BB23F
:1095F00099423ED2FB1D1A782C491300DB009B18C0
:109600009B015858FB1D1A78FB1D1978274D8323A1
:109610009C000B00DB005B189B01EB181B191B88DF
:109620009BB21C0021491300DB009B189B01CB1847
:109630001B1909331B78DBB29BB20385FB1D1A781B
:109640001A48832399001300DB009B189B01C31861
:109650005B181B889BB201339CB21448832399008A
:109660001300DB009B189B01C3185B18221C1A8097
:1096700018E0FB1D1A780D491300DB009B189B01B5
:109680005A58137D01210B431375FB1D1A780749A6
:109690001300DB009B189B015A58937D02210B435A
:1096A0009375C046BD4602B0B0BDC046FC31002037
:1096B000DD6D00000A02000080B500AF0020FFF75A
:1096C00063FDC046BD4680BD80B500AF0120FFF7F9
:1096D0005BFDC046BD4680BD80B500AF0220FFF7F0
:1096E00053FDC046BD4680BD80B500AF0320FFF7E7
:1096F0004BFDC046BD4680BD80B500AF01220021B4
:109700000220194B984700F093F8031E07D0174B1F
:109710001A78802149420A431A70022321E000F09E
:1097200067F8031E06D0114B5A7801210A435A707C
:10973000022316E000F03CF8031E06D00B4B5A78CB
:1097400002210A435A7002230BE000F011F8031EB5
:1097500006D0064B5A7804210A435A70022300E0CF
:1097600000231800BD4680BDDD6D0000502500209F
:10977000B0B500AF0B4B0A221A8006E0094B1B88DC
:109780009BB2002B01D1012308E0074A06230021E8
:109790000920064CA047031EF0D000231800BD4648
:1097A000B0BDC046F4310020C43B0020A9790000C0
:1097B000B0B500AF0B4B0A221A8006E0094B1B889C
:1097C0009BB2002B01D1012308E0074A04230021AA
:1097D0000120064CA047031EF0D000231800BD4610
:1097E000B0BDC046F4310020F43D0020A97900004E
:1097F000B0B500AF0B4B0A221A8006E0094B1B885C
:109800009BB2002B01D1012308E0074A0423002169
:109810000520064CA047031EF0D000231800BD46CB
:10982000B0BDC046F4310020F03D0020A979000011
:10983000B0B500AF0B4B0A221A8006E0094B1B881B
:109840009BB2002B01D1012308E0074A0423002129
:109850000F20064CA047031EF0D000231800BD4681
:10986000B0BDC046F4310020EC3D0020A9790000D5
:1098700090B587B002AF0200FB1D1A70BB1D0A1C19
:109880001A700E23FB1800221A80504B1B889BB2C3
:10989000002B04D14E4B00221A70022391E04C4B56
:1098A0001B78052B00D985E09A004A4BD3181B681A
:1098B0009F46474BFA1D12781A70444B464A1A804D
:1098C00000237EE0454B1888454B1B88D9B2454B99
:1098D0001A68454B1C88454B1B7800932300444C69
:1098E000A047031E00D16AE0394BFA1D12781A70A6
:1098F0003E4B00221A7062E00E23FC18BB1D1B7841
:10990000180000F077F8030023800E23FB181B8853
:10991000002B09D02E4B00221A70FB1D00221A705A
:109920000E23FB181B884CE0294B01221A7047E0DC
:10993000BB1D1B78180000F0F1F9031E07D0244B63
:1099400000221A70FB1D00221A70012339E0204BFF
:1099500001221A7034E00E23FC18BB1D1B7818007E
:1099600000F02AFC030023800E23FB181B88002B29
:1099700009D0174B00221A70FB1D00221A700E230B
:10998000FB181B881DE0124B01221A7018E0BB1D4A
:109990001B78180000F0ACFE031E07D00C4B002211
:1099A0001A70FB1D00221A7001230AE0084B0122E5
:1099B0001A7005E0064B00221A70022301E0C0462F
:1099C00000231800BD4605B090BDC046F63100200A
:1099D00088040020FCCB0000983A0000800400209E
:1099E00082040020FC3A002084040020B73B0020C1
:1099F0000179000090B585B000AF0200FB1D1A7020
:109A00000F23FB1800221A70B64B1B78FA1D127830
:109A10009A4206D0B34BFA1D12781A70B24B00224C
:109A20001A70B14B1B78042B00D951E19A00AF4B4F
:109A3000D3181B689F46AE4B26221A80FB1D1B784D
:109A40005B011BB2082213431BB29AB2A94B1A80C6
:109A5000FB1D1B785B0128331A00A74BD3185A1D36
:109A6000A64B1A60A64B02221A80A64B01221A703E
:109A70009D4B01221A70A44B00221A802DE1FB1D80
:109A80001B789D4A2D215B01D3185B181B781B02A4
:109A90001AB2FB1D1B7898492E205B01CB181B18AE
:109AA0001B781BB213431BB29AB2984B1A80974B88
:109AB0001B889BB2002B6CD0FB1D1A789449BA23EB
:109AC000DB00944842438A18D318DA781B791B02CA
:109AD00013439AB2864B1A80FB1D1B785B011BB2A5
